{
    "_format": "hh-sol-artifact-1",
    "contractName": "AnimatedGif",
    "sourceName": "contracts/AnimatedGif.sol",
    "abi": [
        {
            "inputs": [],
            "stateMutability": "nonpayable",
            "type": "constructor"
        },
        {
            "inputs": [],
            "name": "ErrorOnlyOwner",
            "type": "error"
        },
        {
            "inputs": [],
            "name": "MAX_FRAMES",
            "outputs": [
                {
                    "internalType": "uint8",
                    "name": "",
                    "type": "uint8"
                }
            ],
            "stateMutability": "view",
            "type": "function"
        },
        {
            "inputs": [],
            "name": "MAX_XY",
            "outputs": [
                {
                    "internalType": "uint8",
                    "name": "",
                    "type": "uint8"
                }
            ],
            "stateMutability": "view",
            "type": "function"
        },
        {
            "inputs": [],
            "name": "getInterval",
            "outputs": [
                {
                    "internalType": "uint16",
                    "name": "",
                    "type": "uint16"
                }
            ],
            "stateMutability": "view",
            "type": "function"
        },
        {
            "inputs": [
                {
                    "internalType": "uint8",
                    "name": "z",
                    "type": "uint8"
                }
            ],
            "name": "getMatrixForLayer",
            "outputs": [
                {
                    "internalType": "uint8[3072]",
                    "name": "",
                    "type": "uint8[3072]"
                }
            ],
            "stateMutability": "view",
            "type": "function"
        },
        {
            "inputs": [
                {
                    "internalType": "uint8",
                    "name": "x",
                    "type": "uint8"
                },
                {
                    "internalType": "uint8",
                    "name": "y",
                    "type": "uint8"
                },
                {
                    "internalType": "uint8",
                    "name": "z",
                    "type": "uint8"
                }
            ],
            "name": "getPixelColor",
            "outputs": [
                {
                    "internalType": "uint8",
                    "name": "",
                    "type": "uint8"
                },
                {
                    "internalType": "uint8",
                    "name": "",
                    "type": "uint8"
                },
                {
                    "internalType": "uint8",
                    "name": "",
                    "type": "uint8"
                }
            ],
            "stateMutability": "view",
            "type": "function"
        },
        {
            "inputs": [],
            "name": "interval",
            "outputs": [
                {
                    "internalType": "uint16",
                    "name": "",
                    "type": "uint16"
                }
            ],
            "stateMutability": "view",
            "type": "function"
        },
        {
            "inputs": [
                {
                    "internalType": "uint256",
                    "name": "",
                    "type": "uint256"
                },
                {
                    "internalType": "uint256",
                    "name": "",
                    "type": "uint256"
                },
                {
                    "internalType": "uint256",
                    "name": "",
                    "type": "uint256"
                }
            ],
            "name": "matrix",
            "outputs": [
                {
                    "internalType": "uint8",
                    "name": "r",
                    "type": "uint8"
                },
                {
                    "internalType": "uint8",
                    "name": "g",
                    "type": "uint8"
                },
                {
                    "internalType": "uint8",
                    "name": "b",
                    "type": "uint8"
                }
            ],
            "stateMutability": "view",
            "type": "function"
        },
        {
            "inputs": [],
            "name": "owner",
            "outputs": [
                {
                    "internalType": "address",
                    "name": "",
                    "type": "address"
                }
            ],
            "stateMutability": "view",
            "type": "function"
        },
        {
            "inputs": [
                {
                    "internalType": "uint8",
                    "name": "x",
                    "type": "uint8"
                },
                {
                    "internalType": "uint8",
                    "name": "y",
                    "type": "uint8"
                },
                {
                    "internalType": "uint8",
                    "name": "z",
                    "type": "uint8"
                },
                {
                    "internalType": "uint8",
                    "name": "r",
                    "type": "uint8"
                },
                {
                    "internalType": "uint8",
                    "name": "g",
                    "type": "uint8"
                },
                {
                    "internalType": "uint8",
                    "name": "b",
                    "type": "uint8"
                }
            ],
            "name": "setPixelColor",
            "outputs": [],
            "stateMutability": "nonpayable",
            "type": "function"
        },
        {
            "inputs": [
                {
                    "internalType": "uint8",
                    "name": "z",
                    "type": "uint8"
                },
                {
                    "internalType": "uint8[]",
                    "name": "xArray",
                    "type": "uint8[]"
                },
                {
                    "internalType": "uint8[]",
                    "name": "yArray",
                    "type": "uint8[]"
                },
                {
                    "internalType": "uint8[]",
                    "name": "rArray",
                    "type": "uint8[]"
                },
                {
                    "internalType": "uint8[]",
                    "name": "gArray",
                    "type": "uint8[]"
                },
                {
                    "internalType": "uint8[]",
                    "name": "bArray",
                    "type": "uint8[]"
                }
            ],
            "name": "setPixelColors",
            "outputs": [],
            "stateMutability": "nonpayable",
            "type": "function"
        }
    ],
    "bytecode": "0x60806040526103e8600060146101000a81548161ffff021916908361ffff16021790555034801561002f57600080fd5b50336000806101000a81548173ffffffffffffffffffffffffffffffffffffffff021916908373ffffffffffffffffffffffffffffffffffffffff1602179055506113898061007f6000396000f3fe608060405234801561001057600080fd5b506004361061009e5760003560e01c8063947a36fb11610066578063947a36fb146101495780639f6575dc14610167578063c41d842c14610197578063d637bee8146101b5578063f13b81ea146101e75761009e565b806303cc982e146100a35780631b7f43be146100d55780635cdf082e146100f15780638da5cb5b1461010d57806391ad27b41461012b575b600080fd5b6100bd60048036038101906100b89190610b0f565b610205565b6040516100cc93929190610b71565b60405180910390f35b6100ef60048036038101906100ea9190610ba8565b610347565b005b61010b60048036038101906101069190610d8e565b610499565b005b61011561074f565b6040516101229190610ee8565b60405180910390f35b610133610778565b6040516101409190610f20565b60405180910390f35b61015161078f565b60405161015e9190610f20565b60405180910390f35b610181600480360381019061017c9190610f3b565b6107a3565b60405161018e9190611014565b60405180910390f35b61019f6109aa565b6040516101ac9190611031565b60405180910390f35b6101cf60048036038101906101ca9190611082565b6109af565b6040516101de93929190610b71565b60405180910390f35b6101ef610a2a565b6040516101fc9190611031565b60405180910390f35b6000806000602060ff168660ff161080156102265750602060ff168560ff16105b80156102385750603260ff168460ff16105b610277576040517f08c379a000000000000000000000000000000000000000000000000000000000815260040161026e90611132565b60405180910390fd5b600060018560ff16602081106102905761028f611152565b5b61064002018760ff16602081106102aa576102a9611152565b5b603202018660ff16603281106102c3576102c2611152565b5b016040518060600160405290816000820160009054906101000a900460ff1660ff1660ff1681526020016000820160019054906101000a900460ff1660ff1660ff1681526020016000820160029054906101000a900460ff1660ff1660ff168152505090508060000151816020015182604001519350935093505093509350939050565b61034f610a2f565b602060ff168660ff1610801561036b5750602060ff168560ff16105b801561037d5750603260ff168460ff16105b6103bc576040517f08c379a00000000000000000000000000000000000000000000000000000000081526004016103b390611132565b60405180910390fd5b60405180606001604052808460ff1681526020018360ff1681526020018260ff1681525060018560ff16602081106103f7576103f6611152565b5b61064002018760ff166020811061041157610410611152565b5b603202018660ff166032811061042a57610429611152565b5b0160008201518160000160006101000a81548160ff021916908360ff16021790555060208201518160000160016101000a81548160ff021916908360ff16021790555060408201518160000160026101000a81548160ff021916908360ff160217905550905050505050505050565b6104a1610a2f565b603260ff168660ff16106104ea576040517f08c379a00000000000000000000000000000000000000000000000000000000081526004016104e1906111cd565b60405180910390fd5b6000855190508451811480156105005750835181145b801561050c5750825181145b80156105185750815181145b610557576040517f08c379a000000000000000000000000000000000000000000000000000000000815260040161054e9061125f565b60405180910390fd5b60005b8181101561074557600087828151811061057757610576611152565b5b60200260200101519050600087838151811061059657610595611152565b5b6020026020010151905060008784815181106105b5576105b4611152565b5b6020026020010151905060008785815181106105d4576105d3611152565b5b6020026020010151905060008786815181106105f3576105f2611152565b5b60200260200101519050602060ff168560ff161080156106195750602060ff168460ff16105b610658576040517f08c379a000000000000000000000000000000000000000000000000000000000815260040161064f90611132565b60405180910390fd5b60405180606001604052808460ff1681526020018360ff1681526020018260ff1681525060018e60ff166020811061069357610692611152565b5b61064002018660ff16602081106106ad576106ac611152565b5b603202018560ff16603281106106c6576106c5611152565b5b0160008201518160000160006101000a81548160ff021916908360ff16021790555060208201518160000160016101000a81548160ff021916908360ff16021790555060408201518160000160026101000a81548160ff021916908360ff1602179055509050505050505050808061073d906112ae565b91505061055a565b5050505050505050565b60008060009054906101000a900473ffffffffffffffffffffffffffffffffffffffff16905090565b60008060149054906101000a900461ffff16905090565b600060149054906101000a900461ffff1681565b6107ab610a9d565b603260ff168260ff16106107f4576040517f08c379a00000000000000000000000000000000000000000000000000000000081526004016107eb906111cd565b60405180910390fd5b6107fc610a9d565b6000805b602060ff168160ff16101561099f5760005b602060ff168160ff16101561098b57600060018760ff166020811061083a57610839611152565b5b61064002018260ff166020811061085457610853611152565b5b603202018360ff166032811061086d5761086c611152565b5b016040518060600160405290816000820160009054906101000a900460ff1660ff1660ff1681526020016000820160019054906101000a900460ff1660ff1660ff1681526020016000820160029054906101000a900460ff1660ff1660ff1681525050905080600001518585610c0081106108eb576108ea611152565b5b602002019060ff16908160ff168152505080602001518560018661090f91906112f6565b610c00811061092157610920611152565b5b602002019060ff16908160ff168152505080604001518560028661094591906112f6565b610c00811061095757610956611152565b5b602002019060ff16908160ff168152505060038461097591906112f6565b93505080806109839061132a565b915050610812565b5080806109979061132a565b915050610800565b508192505050919050565b603281565b600183602081106109bf57600080fd5b610640020182602081106109d257600080fd5b6032020181603281106109e457600080fd5b0160009250925050508060000160009054906101000a900460ff16908060000160019054906101000a900460ff16908060000160029054906101000a900460ff16905083565b602081565b3373ffffffffffffffffffffffffffffffffffffffff16610a4e61074f565b73ffffffffffffffffffffffffffffffffffffffff1614610a9b576040517f8df4116d00000000000000000000000000000000000000000000000000000000815260040160405180910390fd5b565b60405180620180000160405280610c0090602082028036833780820191505090505090565b6000604051905090565b600080fd5b600080fd5b600060ff82169050919050565b610aec81610ad6565b8114610af757600080fd5b50565b600081359050610b0981610ae3565b92915050565b600080600060608486031215610b2857610b27610acc565b5b6000610b3686828701610afa565b9350506020610b4786828701610afa565b9250506040610b5886828701610afa565b9150509250925092565b610b6b81610ad6565b82525050565b6000606082019050610b866000830186610b62565b610b936020830185610b62565b610ba06040830184610b62565b949350505050565b60008060008060008060c08789031215610bc557610bc4610acc565b5b6000610bd389828a01610afa565b9650506020610be489828a01610afa565b9550506040610bf589828a01610afa565b9450506060610c0689828a01610afa565b9350506080610c1789828a01610afa565b92505060a0610c2889828a01610afa565b9150509295509295509295565b600080fd5b6000601f19601f8301169050919050565b7f4e487b7100000000000000000000000000000000000000000000000000000000600052604160045260246000fd5b610c8382610c3a565b810181811067ffffffffffffffff82111715610ca257610ca1610c4b565b5b80604052505050565b6000610cb5610ac2565b9050610cc18282610c7a565b919050565b600067ffffffffffffffff821115610ce157610ce0610c4b565b5b602082029050602081019050919050565b600080fd5b6000610d0a610d0584610cc6565b610cab565b90508083825260208201905060208402830185811115610d2d57610d2c610cf2565b5b835b81811015610d565780610d428882610afa565b845260208401935050602081019050610d2f565b5050509392505050565b600082601f830112610d7557610d74610c35565b5b8135610d85848260208601610cf7565b91505092915050565b60008060008060008060c08789031215610dab57610daa610acc565b5b6000610db989828a01610afa565b965050602087013567ffffffffffffffff811115610dda57610dd9610ad1565b5b610de689828a01610d60565b955050604087013567ffffffffffffffff811115610e0757610e06610ad1565b5b610e1389828a01610d60565b945050606087013567ffffffffffffffff811115610e3457610e33610ad1565b5b610e4089828a01610d60565b935050608087013567ffffffffffffffff811115610e6157610e60610ad1565b5b610e6d89828a01610d60565b92505060a087013567ffffffffffffffff811115610e8e57610e8d610ad1565b5b610e9a89828a01610d60565b9150509295509295509295565b600073ffffffffffffffffffffffffffffffffffffffff82169050919050565b6000610ed282610ea7565b9050919050565b610ee281610ec7565b82525050565b6000602082019050610efd6000830184610ed9565b92915050565b600061ffff82169050919050565b610f1a81610f03565b82525050565b6000602082019050610f356000830184610f11565b92915050565b600060208284031215610f5157610f50610acc565b5b6000610f5f84828501610afa565b91505092915050565b6000610c009050919050565b600081905092915050565b6000819050919050565b610f9281610ad6565b82525050565b6000610fa48383610f89565b60208301905092915050565b6000602082019050919050565b610fc681610f68565b610fd08184610f74565b9250610fdb82610f7f565b8060005b8381101561100c578151610ff38782610f98565b9650610ffe83610fb0565b925050600181019050610fdf565b505050505050565b6000620180008201905061102b6000830184610fbd565b92915050565b60006020820190506110466000830184610b62565b92915050565b6000819050919050565b61105f8161104c565b811461106a57600080fd5b50565b60008135905061107c81611056565b92915050565b60008060006060848603121561109b5761109a610acc565b5b60006110a98682870161106d565b93505060206110ba8682870161106d565b92505060406110cb8682870161106d565b9150509250925092565b600082825260208201905092915050565b7f496e76616c696420706f736974696f6e00000000000000000000000000000000600082015250565b600061111c6010836110d5565b9150611127826110e6565b602082019050919050565b6000602082019050818103600083015261114b8161110f565b9050919050565b7f4e487b7100000000000000000000000000000000000000000000000000000000600052603260045260246000fd5b7f496e76616c6964206c6179657200000000000000000000000000000000000000600082015250565b60006111b7600d836110d5565b91506111c282611181565b602082019050919050565b600060208201905081810360008301526111e6816111aa565b9050919050565b7f496e70757420617272617973206d7573742068617665207468652073616d652060008201527f6c656e6774680000000000000000000000000000000000000000000000000000602082015250565b60006112496026836110d5565b9150611254826111ed565b604082019050919050565b600060208201905081810360008301526112788161123c565b9050919050565b7f4e487b7100000000000000000000000000000000000000000000000000000000600052601160045260246000fd5b60006112b98261104c565b91507fffffffffffffffffffffffffffffffffffffffffffffffffffffffffffffffff82036112eb576112ea61127f565b5b600182019050919050565b60006113018261104c565b915061130c8361104c565b92508282019050808211156113245761132361127f565b5b92915050565b600061133582610ad6565b915060ff82036113485761134761127f565b5b60018201905091905056fea26469706673582212201c0691fab54f9673344c62a30f79e42be246276f51e6738fa23a02314e74e86e64736f6c63430008130033",
    "linkReferences": {},
    "deployedLinkReferences": {}
}