{
  "_format": "hh-sol-artifact-1",
  "contractName": "AnimatedGif",
  "sourceName": "contracts/AnimatedGif.sol",
  "abi": [
    {
      "inputs": [],
      "stateMutability": "nonpayable",
      "type": "constructor"
    },
    {
      "inputs": [],
      "name": "ErrorOnlyOwner",
      "type": "error"
    },
    {
      "inputs": [],
      "name": "MAX_FRAMES",
      "outputs": [
        {
          "internalType": "uint8",
          "name": "",
          "type": "uint8"
        }
      ],
      "stateMutability": "view",
      "type": "function"
    },
    {
      "inputs": [],
      "name": "MAX_XY",
      "outputs": [
        {
          "internalType": "uint8",
          "name": "",
          "type": "uint8"
        }
      ],
      "stateMutability": "view",
      "type": "function"
    },
    {
      "inputs": [
        {
          "internalType": "uint8",
          "name": "z",
          "type": "uint8"
        }
      ],
      "name": "getMatrixForLayer",
      "outputs": [
        {
          "internalType": "uint8[3072]",
          "name": "",
          "type": "uint8[3072]"
        }
      ],
      "stateMutability": "view",
      "type": "function"
    },
    {
      "inputs": [
        {
          "internalType": "uint8",
          "name": "x",
          "type": "uint8"
        },
        {
          "internalType": "uint8",
          "name": "y",
          "type": "uint8"
        },
        {
          "internalType": "uint8",
          "name": "z",
          "type": "uint8"
        }
      ],
      "name": "getPixelColor",
      "outputs": [
        {
          "internalType": "uint8",
          "name": "",
          "type": "uint8"
        },
        {
          "internalType": "uint8",
          "name": "",
          "type": "uint8"
        },
        {
          "internalType": "uint8",
          "name": "",
          "type": "uint8"
        }
      ],
      "stateMutability": "view",
      "type": "function"
    },
    {
      "inputs": [
        {
          "internalType": "uint256",
          "name": "",
          "type": "uint256"
        },
        {
          "internalType": "uint256",
          "name": "",
          "type": "uint256"
        },
        {
          "internalType": "uint256",
          "name": "",
          "type": "uint256"
        }
      ],
      "name": "matrix",
      "outputs": [
        {
          "internalType": "uint8",
          "name": "r",
          "type": "uint8"
        },
        {
          "internalType": "uint8",
          "name": "g",
          "type": "uint8"
        },
        {
          "internalType": "uint8",
          "name": "b",
          "type": "uint8"
        }
      ],
      "stateMutability": "view",
      "type": "function"
    },
    {
      "inputs": [],
      "name": "owner",
      "outputs": [
        {
          "internalType": "address",
          "name": "",
          "type": "address"
        }
      ],
      "stateMutability": "view",
      "type": "function"
    },
    {
      "inputs": [
        {
          "internalType": "uint8",
          "name": "x",
          "type": "uint8"
        },
        {
          "internalType": "uint8",
          "name": "y",
          "type": "uint8"
        },
        {
          "internalType": "uint8",
          "name": "z",
          "type": "uint8"
        },
        {
          "internalType": "uint8",
          "name": "r",
          "type": "uint8"
        },
        {
          "internalType": "uint8",
          "name": "g",
          "type": "uint8"
        },
        {
          "internalType": "uint8",
          "name": "b",
          "type": "uint8"
        }
      ],
      "name": "setPixelColor",
      "outputs": [],
      "stateMutability": "nonpayable",
      "type": "function"
    },
    {
      "inputs": [
        {
          "internalType": "uint8",
          "name": "z",
          "type": "uint8"
        },
        {
          "internalType": "uint8[]",
          "name": "xArray",
          "type": "uint8[]"
        },
        {
          "internalType": "uint8[]",
          "name": "yArray",
          "type": "uint8[]"
        },
        {
          "internalType": "uint8[]",
          "name": "rArray",
          "type": "uint8[]"
        },
        {
          "internalType": "uint8[]",
          "name": "gArray",
          "type": "uint8[]"
        },
        {
          "internalType": "uint8[]",
          "name": "bArray",
          "type": "uint8[]"
        }
      ],
      "name": "setPixelColors",
      "outputs": [],
      "stateMutability": "nonpayable",
      "type": "function"
    }
  ],
  "bytecode": "0x608060405234801561001057600080fd5b50336000806101000a81548173ffffffffffffffffffffffffffffffffffffffff021916908373ffffffffffffffffffffffffffffffffffffffff1602179055506112d4806100606000396000f3fe608060405234801561001057600080fd5b50600436106100885760003560e01c80639f6575dc1161005b5780639f6575dc14610115578063c41d842c14610145578063d637bee814610163578063f13b81ea1461019557610088565b806303cc982e1461008d5780631b7f43be146100bf5780635cdf082e146100db5780638da5cb5b146100f7575b600080fd5b6100a760048036038101906100a29190610a92565b6101b3565b6040516100b693929190610af4565b60405180910390f35b6100d960048036038101906100d49190610b2b565b6102f5565b005b6100f560048036038101906100f09190610d11565b610447565b005b6100ff6106fd565b60405161010c9190610e6b565b60405180910390f35b61012f600480360381019061012a9190610e86565b610726565b60405161013c9190610f5f565b60405180910390f35b61014d61092d565b60405161015a9190610f7c565b60405180910390f35b61017d60048036038101906101789190610fcd565b610932565b60405161018c93929190610af4565b60405180910390f35b61019d6109ad565b6040516101aa9190610f7c565b60405180910390f35b6000806000602060ff168660ff161080156101d45750602060ff168560ff16105b80156101e65750603260ff168460ff16105b610225576040517f08c379a000000000000000000000000000000000000000000000000000000000815260040161021c9061107d565b60405180910390fd5b600060018560ff166020811061023e5761023d61109d565b5b61064002018760ff16602081106102585761025761109d565b5b603202018660ff16603281106102715761027061109d565b5b016040518060600160405290816000820160009054906101000a900460ff1660ff1660ff1681526020016000820160019054906101000a900460ff1660ff1660ff1681526020016000820160029054906101000a900460ff1660ff1660ff168152505090508060000151816020015182604001519350935093505093509350939050565b6102fd6109b2565b602060ff168660ff161080156103195750602060ff168560ff16105b801561032b5750603260ff168460ff16105b61036a576040517f08c379a00000000000000000000000000000000000000000000000000000000081526004016103619061107d565b60405180910390fd5b60405180606001604052808460ff1681526020018360ff1681526020018260ff1681525060018560ff16602081106103a5576103a461109d565b5b61064002018760ff16602081106103bf576103be61109d565b5b603202018660ff16603281106103d8576103d761109d565b5b0160008201518160000160006101000a81548160ff021916908360ff16021790555060208201518160000160016101000a81548160ff021916908360ff16021790555060408201518160000160026101000a81548160ff021916908360ff160217905550905050505050505050565b61044f6109b2565b603260ff168660ff1610610498576040517f08c379a000000000000000000000000000000000000000000000000000000000815260040161048f90611118565b60405180910390fd5b6000855190508451811480156104ae5750835181145b80156104ba5750825181145b80156104c65750815181145b610505576040517f08c379a00000000000000000000000000000000000000000000000000000000081526004016104fc906111aa565b60405180910390fd5b60005b818110156106f35760008782815181106105255761052461109d565b5b6020026020010151905060008783815181106105445761054361109d565b5b6020026020010151905060008784815181106105635761056261109d565b5b6020026020010151905060008785815181106105825761058161109d565b5b6020026020010151905060008786815181106105a1576105a061109d565b5b60200260200101519050602060ff168560ff161080156105c75750602060ff168460ff16105b610606576040517f08c379a00000000000000000000000000000000000000000000000000000000081526004016105fd9061107d565b60405180910390fd5b60405180606001604052808460ff1681526020018360ff1681526020018260ff1681525060018e60ff16602081106106415761064061109d565b5b61064002018660ff166020811061065b5761065a61109d565b5b603202018560ff16603281106106745761067361109d565b5b0160008201518160000160006101000a81548160ff021916908360ff16021790555060208201518160000160016101000a81548160ff021916908360ff16021790555060408201518160000160026101000a81548160ff021916908360ff160217905550905050505050505080806106eb906111f9565b915050610508565b5050505050505050565b60008060009054906101000a900473ffffffffffffffffffffffffffffffffffffffff16905090565b61072e610a20565b603260ff168260ff1610610777576040517f08c379a000000000000000000000000000000000000000000000000000000000815260040161076e90611118565b60405180910390fd5b61077f610a20565b6000805b602060ff168160ff1610156109225760005b602060ff168160ff16101561090e57600060018760ff16602081106107bd576107bc61109d565b5b61064002018360ff16602081106107d7576107d661109d565b5b603202018260ff16603281106107f0576107ef61109d565b5b016040518060600160405290816000820160009054906101000a900460ff1660ff1660ff1681526020016000820160019054906101000a900460ff1660ff1660ff1681526020016000820160029054906101000a900460ff1660ff1660ff1681525050905080600001518585610c00811061086e5761086d61109d565b5b602002019060ff16908160ff16815250508060200151856001866108929190611241565b610c0081106108a4576108a361109d565b5b602002019060ff16908160ff16815250508060400151856002866108c89190611241565b610c0081106108da576108d961109d565b5b602002019060ff16908160ff16815250506003846108f89190611241565b935050808061090690611275565b915050610795565b50808061091a90611275565b915050610783565b508192505050919050565b603281565b6001836020811061094257600080fd5b6106400201826020811061095557600080fd5b60320201816032811061096757600080fd5b0160009250925050508060000160009054906101000a900460ff16908060000160019054906101000a900460ff16908060000160029054906101000a900460ff16905083565b602081565b3373ffffffffffffffffffffffffffffffffffffffff166109d16106fd565b73ffffffffffffffffffffffffffffffffffffffff1614610a1e576040517f8df4116d00000000000000000000000000000000000000000000000000000000815260040160405180910390fd5b565b60405180620180000160405280610c0090602082028036833780820191505090505090565b6000604051905090565b600080fd5b600080fd5b600060ff82169050919050565b610a6f81610a59565b8114610a7a57600080fd5b50565b600081359050610a8c81610a66565b92915050565b600080600060608486031215610aab57610aaa610a4f565b5b6000610ab986828701610a7d565b9350506020610aca86828701610a7d565b9250506040610adb86828701610a7d565b9150509250925092565b610aee81610a59565b82525050565b6000606082019050610b096000830186610ae5565b610b166020830185610ae5565b610b236040830184610ae5565b949350505050565b60008060008060008060c08789031215610b4857610b47610a4f565b5b6000610b5689828a01610a7d565b9650506020610b6789828a01610a7d565b9550506040610b7889828a01610a7d565b9450506060610b8989828a01610a7d565b9350506080610b9a89828a01610a7d565b92505060a0610bab89828a01610a7d565b9150509295509295509295565b600080fd5b6000601f19601f8301169050919050565b7f4e487b7100000000000000000000000000000000000000000000000000000000600052604160045260246000fd5b610c0682610bbd565b810181811067ffffffffffffffff82111715610c2557610c24610bce565b5b80604052505050565b6000610c38610a45565b9050610c448282610bfd565b919050565b600067ffffffffffffffff821115610c6457610c63610bce565b5b602082029050602081019050919050565b600080fd5b6000610c8d610c8884610c49565b610c2e565b90508083825260208201905060208402830185811115610cb057610caf610c75565b5b835b81811015610cd95780610cc58882610a7d565b845260208401935050602081019050610cb2565b5050509392505050565b600082601f830112610cf857610cf7610bb8565b5b8135610d08848260208601610c7a565b91505092915050565b60008060008060008060c08789031215610d2e57610d2d610a4f565b5b6000610d3c89828a01610a7d565b965050602087013567ffffffffffffffff811115610d5d57610d5c610a54565b5b610d6989828a01610ce3565b955050604087013567ffffffffffffffff811115610d8a57610d89610a54565b5b610d9689828a01610ce3565b945050606087013567ffffffffffffffff811115610db757610db6610a54565b5b610dc389828a01610ce3565b935050608087013567ffffffffffffffff811115610de457610de3610a54565b5b610df089828a01610ce3565b92505060a087013567ffffffffffffffff811115610e1157610e10610a54565b5b610e1d89828a01610ce3565b9150509295509295509295565b600073ffffffffffffffffffffffffffffffffffffffff82169050919050565b6000610e5582610e2a565b9050919050565b610e6581610e4a565b82525050565b6000602082019050610e806000830184610e5c565b92915050565b600060208284031215610e9c57610e9b610a4f565b5b6000610eaa84828501610a7d565b91505092915050565b6000610c009050919050565b600081905092915050565b6000819050919050565b610edd81610a59565b82525050565b6000610eef8383610ed4565b60208301905092915050565b6000602082019050919050565b610f1181610eb3565b610f1b8184610ebf565b9250610f2682610eca565b8060005b83811015610f57578151610f3e8782610ee3565b9650610f4983610efb565b925050600181019050610f2a565b505050505050565b60006201800082019050610f766000830184610f08565b92915050565b6000602082019050610f916000830184610ae5565b92915050565b6000819050919050565b610faa81610f97565b8114610fb557600080fd5b50565b600081359050610fc781610fa1565b92915050565b600080600060608486031215610fe657610fe5610a4f565b5b6000610ff486828701610fb8565b935050602061100586828701610fb8565b925050604061101686828701610fb8565b9150509250925092565b600082825260208201905092915050565b7f496e76616c696420706f736974696f6e00000000000000000000000000000000600082015250565b6000611067601083611020565b915061107282611031565b602082019050919050565b600060208201905081810360008301526110968161105a565b9050919050565b7f4e487b7100000000000000000000000000000000000000000000000000000000600052603260045260246000fd5b7f496e76616c6964206c6179657200000000000000000000000000000000000000600082015250565b6000611102600d83611020565b915061110d826110cc565b602082019050919050565b60006020820190508181036000830152611131816110f5565b9050919050565b7f496e70757420617272617973206d7573742068617665207468652073616d652060008201527f6c656e6774680000000000000000000000000000000000000000000000000000602082015250565b6000611194602683611020565b915061119f82611138565b604082019050919050565b600060208201905081810360008301526111c381611187565b9050919050565b7f4e487b7100000000000000000000000000000000000000000000000000000000600052601160045260246000fd5b600061120482610f97565b91507fffffffffffffffffffffffffffffffffffffffffffffffffffffffffffffffff8203611236576112356111ca565b5b600182019050919050565b600061124c82610f97565b915061125783610f97565b925082820190508082111561126f5761126e6111ca565b5b92915050565b600061128082610a59565b915060ff8203611293576112926111ca565b5b60018201905091905056fea2646970667358221220c5e05ac4d6ce05db98a42bbfdc0d754a0f4907cf1ffd47b5f676a52341cdb95164736f6c63430008130033",
  "linkReferences": {},
  "deployedLinkReferences": {}
}